{
  "contractName": "Tally",
  "abi": [
    {
      "anonymous": false,
      "inputs": [
        {
          "indexed": false,
          "internalType": "string",
          "name": "method",
          "type": "string"
        },
        {
          "indexed": false,
          "internalType": "uint256",
          "name": "count",
          "type": "uint256"
        },
        {
          "indexed": false,
          "internalType": "address",
          "name": "caller",
          "type": "address"
        }
      ],
      "name": "Count",
      "type": "event"
    },
    {
      "inputs": [],
      "name": "count",
      "outputs": [
        {
          "internalType": "uint256",
          "name": "",
          "type": "uint256"
        }
      ],
      "stateMutability": "view",
      "type": "function",
      "constant": true
    },
    {
      "inputs": [],
      "name": "increase",
      "outputs": [],
      "stateMutability": "nonpayable",
      "type": "function"
    },
    {
      "inputs": [],
      "name": "decrease",
      "outputs": [],
      "stateMutability": "nonpayable",
      "type": "function"
    },
    {
      "inputs": [],
      "name": "getCount",
      "outputs": [
        {
          "internalType": "uint256",
          "name": "",
          "type": "uint256"
        }
      ],
      "stateMutability": "view",
      "type": "function",
      "constant": true
    }
  ],
  "bytecode": "0x608060405234801561001057600080fd5b506103c6806100206000396000f3fe608060405234801561001057600080fd5b506004361061004c5760003560e01c806306661abd14610051578063a87d942c1461006f578063d732d9551461008d578063e8927fbc14610097575b600080fd5b6100596100a1565b6040516100669190610171565b60405180910390f35b6100776100a7565b6040516100849190610171565b60405180910390f35b6100956100b0565b005b61009f610104565b005b60005481565b60008054905090565b6000808154809291906100c2906101bb565b91905055507fcf24299ebc95eedbb801565154ed001c4042a10939aee23f07bf733753a9d966600054336040516100fa929190610283565b60405180910390a1565b600080815480929190610116906102bf565b91905055507fcf24299ebc95eedbb801565154ed001c4042a10939aee23f07bf733753a9d9666000543360405161014e929190610354565b60405180910390a1565b6000819050919050565b61016b81610158565b82525050565b60006020820190506101866000830184610162565b92915050565b7f4e487b7100000000000000000000000000000000000000000000000000000000600052601160045260246000fd5b60006101c682610158565b915060008214156101da576101d961018c565b5b600182039050919050565b600082825260208201905092915050565b7f4465637265617365000000000000000000000000000000000000000000000000600082015250565b600061022c6008836101e5565b9150610237826101f6565b602082019050919050565b600073ffffffffffffffffffffffffffffffffffffffff82169050919050565b600061026d82610242565b9050919050565b61027d81610262565b82525050565b6000606082019050818103600083015261029c8161021f565b90506102ab6020830185610162565b6102b86040830184610274565b9392505050565b60006102ca82610158565b91507fffffffffffffffffffffffffffffffffffffffffffffffffffffffffffffffff8214156102fd576102fc61018c565b5b600182019050919050565b7f496e637265617365000000000000000000000000000000000000000000000000600082015250565b600061033e6008836101e5565b915061034982610308565b602082019050919050565b6000606082019050818103600083015261036d81610331565b905061037c6020830185610162565b6103896040830184610274565b939250505056fea2646970667358221220e86b8ce8986109b9e5c175635ae68a67c484405691106e33f110a37cba5a590d64736f6c634300080a0033",
  "immutableReferences": {},
  "source": "// SPDX-License-Identifier: MIT\n\npragma solidity ^0.8.10;\n\ncontract Tally {\n\n    uint public count;\n    \n    event Count(string method, uint count, address caller);\n\n    function increase() public {\n\n        count++;\n\n        emit Count('Increase', count, msg.sender);\n\n    }\n\n    function decrease() public {\n\n        count--;\n        emit Count('Decrease', count, msg.sender); \n\n    }\n\n    function getCount() public view returns (uint) {\n        return count; \n    }\n\n}",
  "sourcePath": "/Users/alex/Documents/Courses/projects_web3/hello-tally/contracts/Tally.sol",
  "compiler": {
    "name": "solc",
    "version": "0.8.10+commit.fc410830.Emscripten.clang"
  },
  "schemaVersion": "3.4.3",
  "updatedAt": "2021-12-23T19:51:33.197Z",
  "networkType": "ethereum",
  "devdoc": {
    "kind": "dev",
    "methods": {},
    "version": 1
  },
  "userdoc": {
    "kind": "user",
    "methods": {},
    "version": 1
  }
}